:0400000002002132A7
:03000B0002010AE5
:0100130032BA
:03001B000200FEE2
:10007A00752F007522C8752330752400D200C2027C
:07008A00C203C20402001EC4
:03001E000201CF0D
:100091007F007E00BE04005036EE90038993F58008
:1000A100740F5580F4FD7C007B00BB0400501BEDF8
:1000B10030E00E8F02EA2A25E0FA8C01E92AF58266
:1000C10022EDC313FD0B8B0480E00E8E0780C575F6
:1000D10082C8227F018F06EEC454F0F4F580740FBC
:1000E1005580FCE47D00BC0F05BD000280038F82BA
:1000F10022EE2EFFBF100040DC75821022852E8D6E
:10010100852D8B200002B29732C021C0E0C0F0C023
:1001110082C083C007C006C005C004C003C002C0BE
:1001210001C000C0D075D008758CF6758A3CC2AB91
:10013100E52F2425F987A0E59054F0FFE52F9003E2
:100141008D934FF590D2ABAE2F7F008E828F83A31C
:100151007518048F1975D00012024F75D008AE8240
:10016100AF83EEF52F704A30021E300411AE2BAF73
:100171002C74022EFEE43FFF8E2B8F2C8027052B43
:10018100E4B52B21052C801D9003FDE0FEA3E0FFCB
:10019100EE24FFFEEF3401FF8E828F83E0FD0D8E92
:1001A100828F83EDF075D00012009175D0088582A1
:1001B10022D0D0D000D001D002D003D004D005D0BD
:1001C10006D007D083D082D0F0D0E0D0213275891B
:1001D10011D2AFD2A9D28CD2ABD28E900388E49344
:1001E100FF8F25900388E493FF8F26900388E49383
:1001F100FF8F271200D4E58290037993FF8F288027
:01020100DA22
:100289001D11841E2B2B1C376542094D14578F6095
:100299008269F471ED7973818D88428F95958F9B71
:1002A90031A184A689AB47B0C1B4FAB8F6BCB9C0CC
:1002B90046C4A1C7CACAC7CD99D042D3C5D523D888
:1002C90060DA7DDC7BDE5CE023E2D0E365E5E3E632
:1002D9004CE8A0E9E2EA11EC30ED3EEE3DEF2EF0FC
:1002E90011F1E8F1B2F271F326F4D0F471F508F6E0
:1002F90098F61FF79EF717F888F8F4F859F9B8F93E
:1003090013FA68FAB8FA04FB4CFB8FFBCFFB0BFC22
:1003190044FC7AFCACFCDCFC09FD34FD5CFD82FD8F
:10032900A6FDC7FDE7FD05FE22FE3DFE56FE6EFE5B
:1003390084FE9AFEAEFEC1FED3FEE3FEF3FE02FF8B
:1003490011FF1EFF2BFF37FF42FF4DFF57FF60FFD5
:1003590069FF71FF79FF81FF88FF8FFF95FF9BFF81
:10036900A1FFA6FFABFFB0FFB4FFB8FFBCFFC0FF02
:10037900039F250D9949411F01096C30E29025FF22
:0A038900EFDFBF7F0E0D0B07000031
:06005000E478FFF6D8FD84
:10002E007902E94400601B7A0190039178FD75A076
:10003E0003E493F2A308B8000205A0D9F4DAF2752E
:02004E00A0FF11
:10020200E518451960467A01E51825E0F518E51963
:10021200334012F519E5829518E583951940030AD2
:1002220080E6C3E51913F519E51813F518C3E5823D
:100232009518F5F0E58395194005F58385F082C39D
:0D024200E51913F519E51813F518DAE12296
:100056007800E84400600A790175A000E4F309D845
:10006600FC78FCE84403600C7904900001E4F0A3FA
:04007600D8FCD9FADF
:0D00210075812F120285E582600302001E2A
:10024F00C2D5E58330E70DD2D5E4C39582F582E4BC
:10025F009583F583E51930E70BE4C39518F518E49A
:10026F009519F51912020230D50BE4C39582F58268
:0A027F00E49583F5832275820022C6
:00000001FF
