:0400000002001132B7
:03000B000200EE02
:10006A0075260F75270375289F752925752A0D751D
:10007A002B99752C49752D41752E1F752F017530D9
:10008A000975314175321F75330375349F753525EE
:06009A007536FF02000EA6
:03000E0002018369
:1000A0007F007E00BE040050418E058DF005F07487
:1000B00010800225E0D5F0FBF4F580740F5580F434
:1000C000FD7C007B00BB0400501BED30E00E8F0276
:1000D000EA2A25E0FA8C01E92AF58222EDC313FD14
:1000E0000B8B0480E00E8E0780BA75821122C0202F
:1000F000C0E0C0F0C082C083C007C006C005C00415
:10010000C003C002C001C000C0D075D008758CEA21
:10011000758A8475370E75380D75390B753A077504
:100120003B0E753C0D753D0B753E07E5212437F9F7
:100130008790E5212422F9E72427F987A0AE217FC3
:10014000008E828F83A37510048F1175D000120268
:100150000D75D008AE82EEF521700BF5D01200A01F
:1001600075D008858226D0D0D000D001D002D0032F
:10017000D004D005D006D007D083D082D0F0D0E014
:10018000D0203275250F75240F75230F75220F753A
:100190008981758CEA758A84D2AFD2A9D28C7F11FD
:1001A000EFB5260280FAAF267411B5260280F1AEB3
:1001B000248E25AE238E24AE228E2385262280E037
:1002470090FBD0FB0AFC44FC7AFCADFCDDFC0AFD0C
:1002570034FD5CFD82FDA6FDC8FDE8FD06FE22FE1D
:0E0267008025C012201C6009100E0807B0048C
:06004000E478FFF6D8FD94
:10001E007900E94400601B7A00900275780175A0A2
:10002E0000E493F2A308B8000205A0D9F4DAF27541
:02003E00A0FF21
:1001C000E510451160467A01E51025E0F510E511CE
:1001D000334012F511E5829510E583951140030A2D
:1001E00080E6C3E51113F511E51013F510C3E582A0
:1001F0009510F5F0E58395114005F58385F082C3F0
:0D020000E51113F511E51013F510DAE122F8
:100046007800E84400600A790175A000E4F309D855
:10005600FC7800E84400600C7900900001E4F0A30D
:04006600D8FCD9FAEF
:0D00110075813E120243E582600302000E7D
:10020D00C2D5E58330E70DD2D5E4C39582F582E4FE
:10021D009583F583E51130E70BE4C39510F510E4F4
:10022D009511F5111201C030D50BE4C39582F582FD
:0A023D00E49583F583227582002208
:00000001FF
