:0400000002002132A7
:03000B000200CB25
:0100130032BA
:03001B000200D709
:0E007A00752D00752211752300D20002001EA4
:03001E000201C01C
:100088007F007E00BE04005036EE90058B93F5800D
:10009800740F5580F4FD7C007B00BB0400501BED01
:1000A80030E00E8F02EA2A25E0FA8C01E92AF5826F
:1000B80022EDC313FD0B8B0480E00E8E0780C575FF
:1000C800821122852C8C852B8A200002B29732C09F
:1000D80021C0E0C0F0C082C083C007C006C005C010
:1000E80004C003C002C001C000C0D075D010758D17
:1000F800F8758B30E59054F0FFE52D90058F934F00
:10010800F590E52D2424F987A0AE2D7F008E828FEF
:1001180083A37518048F1975D0001204EF75D010D9
:10012800AE82AF83EEF52D7072E52324FC4060E5C6
:100138002375F003A49001417302014D0201870267
:10014800018F020178900259E075F002A424C9FEDB
:10015800740035F0FF8E828F83E0FCA3E0FD74020B
:100168002CFCE43DFD8E828F83ECF0EDA3F0801F24
:10017800AE29AF2A74022EFEE43FFF8E298F2A058E
:1001880029E4B52902052A0529E4B52902052A75B5
:10019800D00012008875D010858222D0D0D000D02F
:1001A80001D002D003D004D005D006D007D083D028
:1001B80082D0F0D0E0D02132758911D2AFD2A9D245
:1001C8008CD2ABD28E7F11EFB5220302026EAF2222
:1001D800D201740CB52202801C740DB52202802352
:1001E800740EB522028030740FB52202803D74115E
:1001F800B52254804AC201752300900259E4F0D216
:10020800008063C2019000C9E4F0A3F0752302F5F1
:1002180028F529F52A804FC2019000C9E4F0A3F01F
:10022800752301F528F529F52A803BC2019000C9FC
:10023800E4F0A3F0752303F528F529F52A8027E5CE
:10024800237023D200801FE523701BC200E52275AE
:10025800F002A42461F582740535F0F583E493F582
:100268002BA3E493F52CE523600302037290025953
:10027800E0FEFD74C8C39DFD900585E493FC8C27C2
:100288007C007518648C198D828C83C007C006C0E9
:1002980005C00412052575180A7519001204EFAA7D
:1002A80082AB83D004D005EA247BF582EB3405F5D4
:1002B80083E493FB8B2675180A7519008D828C834D
:1002C800C005C00412052575180A7519001204EF37
:1002D800AA82AB83D004D005EA247BF582EB3405EF
:1002E800F583E493FB8B2575180A7519008D828CAC
:1002F800831204EFAC82AD83D006D007EC247BF5E3
:1003080082ED3405F583E493FD8D24EE75F002A4A7
:1003180024C9F582740035F0F583E0FDA3E0FEC33F
:1003280074DC9D74FF9E5002D2012001030201CFAC
:10033800900259E02401F0E0FEBEC80675230102D0
:1003480001CFEE2401F582E43400F583E522F09034
:100358000259E075F002A424C9F582740035F0F55D
:1003680083E4F0A3F0C2010201CFE52875F002A4EE
:1003780024C9F582740035F0F583E0FDA3E0FEC3DF
:10038800E5299DE52A9E403EE4F529F52A052890B1
:100398000259E0B52803752800E5282401F582E410
:1003A8003400F583E0FE75F002A42461F58274053B
:1003B80035F0F583E493F52BA3E493F52CBE1104F3
:1003C800D2008002C200900259E0C39528FEAD23F6
:1003D800740A2DFD3395E0FCED247BF582EC3405A1
:1003E800F583E493FD8D277D007518648D198E8241
:1003F8008D83C007C006C00512052575180A751932
:10040800001204EFAB82AC83D005D006EB247BF559
:1004180082EC3405F583E493FC8C2675180A75196B
:10042800008E828D83C006C00512052575180A75D1
:1004380019001204EFAB82AC83D005D006EB247B05
:10044800F582EC3405F583E493FC8C2575180A7560
:1004580019008E828D831204EFAD82AE83D007ED32
:10046800247BF582EE3405F583E493FE8E240201A5
:01047800CFB4
:1005610044FC7AFCACFCDCFC09FD34FD5CFD82FD45
:10057100A6FDC7FDE7FD05FE0000039F250D994976
:10058100411F01096C30E29025FFEFDFBF7F0E0DA7
:030591000B070055
:06005000E478FFF6D8FD84
:10002E007901E94400601B7A01900593785975A017
:10003E0002E493F2A308B8000205A0D9F4DAF2752F
:02004E00A0FF11
:10047900E518451960467A01E51825E0F518E519EA
:10048900334012F519E5829518E583951940030A59
:1004990080E6C3E51913F519E51813F518C3E582C4
:1004A9009518F5F0E58395194005F58385F082C324
:0D04B900E51913F519E51813F518DAE1221D
:100056007800E84400600A790175A000E4F309D845
:10006600FC7858E84402600C7903900001E4F0A3A0
:04007600D8FCD9FADF
:1004C6007A10E4FBFCE58225E0F582E58333F583CB
:1004D600EB33FBEC33FCEB9518F5F0EC9519400685
:0904E600FCABF0438201DADD22D7
:0D00210075812D12055DE582600302001E51
:1004EF00C2D5E58330E70DD2D5E4C39582F582E41A
:1004FF009583F583E51930E70BE4C39518F518E4F8
:10050F009519F51912047930D50BE4C39582F5824C
:10051F00E49583F58322C2D5E58330E70DD2D5E488
:10052F00C39582F582E49583F583E51930E70DB223
:10053F00D5E4C39518F518E49519F5191204C630CA
:10054F00D50BE4C39582F582E49583F583227582FA
:02055F00002278
:00000001FF
