:0400000002002132A7
:03000B000200ED03
:0100130032BA
:03001B000200E1FF
:10007A00752F0075220C752330752400E4F529F5D7
:10008A002AF52BF52CF52DF52ED200C202C203C299
:04009A000402001E3E
:03001E000201B22A
:10009E007F007E00BE04005036EE90069693F580EB
:1000AE00740F5580F4FD7C007B00BB0400501BEDEB
:1000BE0030E00E8F02EA2A25E0FA8C01E92AF58259
:1000CE0022EDC313FD0B8B0480E00E8E0780C575E9
:1000DE00827822852E8D852D8B200002B29732C01C
:1000EE0021C0E0C0F0C082C083C007C006C005C0FA
:1000FE0004C003C002C001C000C0D075D008758C0A
:10010E00F8758A30C2ABE52F2425F987A0E5905407
:10011E00F0FFE52F90069A934FF590D2ABAE2F7F5E
:10012E00008E828F83A37518048F1975D000120567
:10013E005A75D008AE82AF83EEF52F704A30021E8C
:10014E00300411AE2BAF2C74022EFEE43FFF8E2B2B
:10015E008F2C8027052BE4B52B21052C801D9003B9
:10016E00FDE0FEA3E0FFEE24FFFEEF3401FF8E82E2
:10017E008F83E0FD0D8E828F83EDF075D00012001F
:10018E009E75D008858222D0D0D000D001D002D06A
:10019E0003D004D005D006D007D083D082D0F0D0C3
:1001AE00E0D02132758911D2AFD2A9D28CD2ABD286
:1001BE008E7E007F00753078E530B522030202A2F4
:1001CE00852230D201740CB52202801F740DB52227
:1001DE00028036740EB522028047740FB52202805B
:1001EE00627478B52202807B0202787EFE7F01C2A5
:1001FE0001C2029003FDE4F0A3F0F52DF52ED2001E
:10020E009000017478F00202A2C2019001FFE4F0A6
:10021E00D202C203C204E4F529F52AF52BF52C808F
:10022E0073C201300204B203806AC3E523940CE565
:10023E00249400405FE52324F4F523E52434FFF5F0
:10024E00248051C201300204B2048048C374609508
:10025E0023E49524403E740C2523F523E43524F540
:10026E0024803120022ED200802A200227C200AB29
:10027E00227C00EB2523FBEC3524FCEB2BFBEC3333
:10028E00FCEB2494F582EC3405F583E493F52DA371
:10029E00E493F52E30020302035B75180C751900FA
:1002AE00852382852483C007C0061204E4AB82AC8A
:1002BE0083D006D007EB2486F582EC3406F583E472
:1002CE0093FC74FE5CF5289003FDE0FBA3E0FCEBD1
:1002DE0024FFF582EC3401F583E0FC24055002D2B4
:1002EE00012001030204539003FDE02401F0A3E07A
:1002FE003400F01EBEFF011F9003FDE0FBA3E0FCE7
:10030E008B028C05BAFE08BD0105D2020201C6742D
:10031E0078B5220FEB2401F582EC3400F583747866
:10032E00F08011EB2401F582EC3400F583AD23E56A
:10033E00222DFDF09003FDE0FCA3E0FDEC24FFF583
:10034E0082ED3401F583E4F0C201020453300374EC
:10035E00E52924FFF582E52A3401F583E0FD7C00D2
:10036E00C3E52B9DE52C9C4050E4F52BF52C15296F
:10037E0074FFB52902152AAE29AF2AE529452A7040
:10038E000A9003FDE0F529A3E0F52AE5292401F5FD
:10039E0082E52A3400F583E0FD75F002A42494F57D
:1003AE0082740535F0F583E493F52DA3E493F52ED1
:1003BE00BD7804D2008002C200900692E493FD8DB7
:1003CE0028020453E52924FFF582E52A3401F5833A
:1003DE00E0FD7C00C3E52B9DE52C9C4060E4F52BF5
:1003EE00F52C0529B52902052A9003FDE0FCA3E0B2
:1003FE00FDECB52909EDB52A05E4F529F52AE5291F
:10040E002401F582E52A3400F583E0FD75F002A49F
:10041E002494F582740535F0F583E493F52DA3E469
:10042E0093F52EBD7804D2008002C2009003FDE049
:10043E00FCA3E0FDECC39529FEED952AFF900691F5
:10044E00E493FD8D288E048F057518647519008C44
:10045E00828D83C007C006C005C0041204E475185F
:10046E000A75190012050DAA82AB83D004D005EAD5
:10047E002486F582EB3406F583E493FB8B277518FF
:10048E000A7519008C828D83C005C0041204E475B0
:10049E00180A75190012050DAA82AB83D004D00577
:1004AE00EA2486F582EB3406F583E493FB8B2675FE
:1004BE00180A7519008C828D8312050DAC82AD83DE
:1004CE00D006D007EC2486F582ED3406F583E4934E
:0604DE00FD8D250201C6A0
:100594001D11841E2B2B1C376542094D14578F6087
:1005A4008269F471ED7973818D88428F95958F9B63
:1005B40031A184A689AB47B0C1B4FAB8F6BCB9C0BE
:1005C40046C4A1C7CACAC7CD99D042D3C5D523D87A
:1005D40060DA7DDC7BDE5CE023E2D0E365E5E3E624
:1005E4004CE8A0E9E2EA11EC30ED3EEE3DEF2EF0EE
:1005F40011F1E8F1B2F271F326F4D0F471F508F6D2
:1006040098F61FF79EF717F888F8F4F859F9B8F92F
:1006140013FA68FAB8FA04FB4CFB8FFBCFFB0BFC14
:1006240044FC7AFCACFCDCFC09FD34FD5CFD82FD81
:10063400A6FDC7FDE7FD05FE22FE3DFE56FE6EFE4D
:1006440084FE9AFEAEFEC1FED3FEE3FEF3FE02FF7D
:1006540011FF1EFF2BFF37FF42FF4DFF57FF60FFC7
:1006640069FF71FF79FF81FF88FF8FFF95FF9BFF73
:10067400A1FFA6FFABFFB0FFB4FFB8FFBCFFC0FFF4
:100684000000039F250D9949411F01096C3010900A
:0C06940025FFEFDFBF7F0E0D0B070000FD
:1004E4007A10E4FBFCE58225E0F582E58333F583AD
:1004F400EB33FBEC33FCEB9518F5F0EC9519400667
:09050400FCABF0438201DADD22B8
:06005000E478FFF6D8FD84
:10002E007902E94400601B7A0190069E78FD75A066
:10003E0003E493F2A308B8000205A0D9F4DAF2752E
:02004E00A0FF11
:10050D00E518451960467A01E51825E0F518E51955
:10051D00334012F519E5829518E583951940030AC4
:10052D0080E6C3E51913F519E51813F518C3E5822F
:10053D009518F5F0E58395194005F58385F082C38F
:0D054D00E51913F519E51813F518DAE12288
:100056007800E84400600A790175A000E4F309D845
:10006600FC78FCE84403600C7904900001E4F0A3FA
:04007600D8FCD9FADF
:0D002100758130120590E582600302001E1B
:10055A00C2D5E58330E70DD2D5E4C39582F582E4AE
:10056A009583F583E51930E70BE4C39518F518E48C
:10057A009519F51912050D30D50BE4C39582F5824C
:0A058A00E49583F5832275820022B8
:00000001FF
