:0400000002002132A7
:03000B0002008E62
:0100130032BA
:03001B0002009E42
:10007A00E4F518F519751AF5751BFF751E54751FE9
:04008A000102001E51
:03001E000201617B
:10008E00C0E085198C85188AE590F4F590D0E032A1
:10009E00C020C0E0C0F0C082C083C007C006C0054B
:1000AE00C004C003C002C001C000C0D075D010ACE7
:1000BE001AAD1BE4FEFFC39CE49DFD74019EE49FFC
:1000CE008D8DAF1AC3E49FFF8F8B051D7463B51D15
:1000DE0005E4F518F519E51D249C505A051CAE1CB7
:1000EE007F00851E21851F228E828F8375D0001280
:1000FE00017F75D010E582FEF51C9001D09375F04E
:10010E0002A42478F582740435F0F583E493F5188F
:10011E00A3E493F519E51C90032493FF75F002A454
:10012E00249AF582740435F0F583E493F51AA3E46A
:10013E0093F51B751D00D0D0D000D001D002D00396
:10014E00D004D005D006D007D083D082D0F0D0E036
:10015E00D0203275891185198C85188A758D0B758D
:10016E008BDCD2AFD2A9D2ABD28CD28E758000806E
:01017E00FE82
:1001D00005070007090C0A090507000000020505CC
:1001E00005070007090C0A090507000000020505BC
:1001F00010020405050704020010100202040502A3
:10020000000C100C07100202040502050710100470
:100210000200101002020405020007070709071078
:100220000507090507070709070010020405021062
:10023000070907000205020909070002050207076E
:10024000050402000205020507040200000007057C
:1002500000020502090907000205020C0405040258
:100260000002050205070402000007051010020540
:10027000020507101004020010100202040502001B
:10028000100C0C07090705100002040502100402F7
:1002900000100202040502001010070709070505F7
:1002A00007090707070907000010000204050210EC
:1002B00007090700020502090907000205020707EE
:1002C00005040200020502050704020000070500FC
:1002D000020502090907000205020C0405040200D8
:1002E00002050205070402000007050002050209D5
:1002F0000907000205020C040504020002050205BC
:1003000007040200000705000205020909070002B0
:1003100005020C04050402000205020507040200A0
:100320000007051002020102020505030202000592
:10033000050503050202010202050503020200058C
:10034000050503050103030303030405000103037B
:100350000303030103030303020103030303030372
:100360000303030303020103030303030301030362
:10037000030301010003030303030303010100035B
:100380000303030303030205050505040402050531
:10039000050504040405040505050501030405031A
:1003A0000303010005050505040402050505050113
:1003B0000304050305050505010304050103010008
:1003C0000103030303030103030303020103030304
:1003D00003030301030303030303030303030303EF
:1003E00003030303020103030303030103030303E2
:1003F00001020003030301030303030301020303D8
:1004000003030303030302050505050404020505B0
:10041000050504040405030505050501030405019C
:100420000301000505050504040205050505010392
:100430000405030505050501030405010301000585
:10044000050505040402050505050103040503056A
:100450000505050103040501030100050505050463
:10046000040205050505010304050305050505014D
:10047000030405010301000190FBD0FB0AFC44FCCE
:100480007AFCADFCDDFC0AFD34FD5CFD82FDA6FDC1
:10049000C8FDE8FD06FE22FE00008025C012201CDB
:0804A0006009100E0807B0040A
:06005000E478FFF6D8FD84
:10002E007900E94400601B7A009004A8780175A05D
:10003E0000E493F2A308B8000205A0D9F4DAF27531
:02004E00A0FF11
:10017F00E521452260467A01E52125E0F521E522BA
:10018F00334012F522E5829521E583952240030A3B
:10019F0080E6C3E52213F522E52113F521C3E5829D
:1001AF009521F5F0E58395224005F58385F082C30F
:0D01BF00E52213F522E52113F521DAE122F6
:100056007800E84400600A790175A000E4F309D845
:10006600FC7800E84400600C7900900001E4F0A3FD
:04007600D8FCD9FADF
:0D0021007581221201CCE582600302001EF1
:0401CC007582002216
:00000001FF
