:03000000020006F5
:03005F0002000399
:0300030002006296
:100062007F117808E644FFF67809E644FFF67D0042
:100072007E00C3ED9464EE64809480501D7B007C0E
:1000820000C3EB940AEC6480948050070BBB00F130
:100092000C80EE0DBD00DB0E80D8C0071202CDAE83
:1000A20082D0078F0A8E0B90000875F040C00612AE
:0800B20000BAD0068E0780B6EB
:06003500E478FFF6D8FD9F
:1000BA0085820C85830D85F00EAA0CAB0DAC0E8AD9
:1000CA00828B838CF01202F7540FFA90031793F481
:1000DA00F5A07590077B007C00C3EB940AEC648062
:1000EA009480501D79007A00C3E9940AEA648094E6
:1000FA0080500709B900F10A80EE0BBB00DB0C80C7
:10010A00D8AA0CAB0DAC0E8A828B838CF01202F744
:10011A00C4540FFA90031793F4F5A075900B7B0063
:10012A007C00C3EB940AEC64809480501D79007AB9
:10013A0000C3E9940AEA64809480500709B900F17F
:10014A000A80EE0BBB00DB0C80D87401250CFAE4A4
:10015A00350DFBAC0E8A828B838CF01202F7540F9A
:10016A00FA90031793F4F5A075900D7B007C00C3F9
:10017A00EB940AEC64809480501D79007A00C3E9FC
:10018A00940AEA64809480500709B900F10A80EE63
:10019A000BBB00DB0C80D87401250CFAE4350DFB8F
:1001AA00AC0E8A828B838CF01202F7C4540F900330
:1001BA001793F9F4F5A075900EE4F50FF510C3E561
:1001CA000F940AE51064809480502078007900C367
:1001DA00E8940AE964809480500708B800F109801D
:1001EA00EE050FE4B50FD7051080D3E50AB50B016C
:1001FA00227411B50B01227401250CF8E4350DF9AE
:10020A00AF0E888289838FF01202F7540F8A828B8D
:10021A00838CF0C454F0C0F0C0E01202F7D0F0545E
:10022A000F45F0D0F01202B2AC0CAD0DAE0E8C82BE
:10023A008D838EF01202F7C4540F888289838FF05F
:10024A00540FC0F0C0E01202F7D0F054F045F0D0DD
:10025A00F01202B2AD0CAE0DAF0EAA0CAB0DAC0E85
:10026A008A828B838CF01202F7540F8D828E838FD1
:10027A00F0C454F0C0F0C0E01202F7D0F0540F45B9
:10028A00F0D0F01202B2AD0CAE0DAF0E8D828E839D
:10029A008FF0E50B540FC0F0C0E01202F7D0F05413
:0802AA00F045F0D0F00202B2B1
:10031700FC0CDAF266B67AE4FEF6EE5A9C5A9E8E2A
:100013007900E94400601B7A00900327780175A0FA
:1000230000E493F2A308B8000205A0D9F4DAF2754C
:02003300A0FF2C
:1002B20020F71130F6138883A88220F509F6A88367
:1002C2007583002280FEF280F5F0227F018F06EE18
:1002D200C454F0F4F580740F5580FCE47D00BC0F2B
:1002E20005BD000280038F8222EE2EFFBF10004068
:0502F200DC7582112201
:10003B007800E84400600A790175A000E4F309D860
:10004B00FC7800E84400600C7900900001E4F0A318
:04005B00D8FCD9FAFA
:0D000600758110120313E5826003020003F0
:1002F70020F71430F6148883A88220F507E6A88330
:1003070075830022E280F7E49322E02275820022BF
:00000001FF
